:020000040800F2
:100000006004002001010008E30B0008130B000846
:10001000E10B00086D010008470D0008000000001A
:10002000000000000000000000000000E70B0008D6
:100030006F01000800000000E50B0008E90B000854
:100040001B0100081B0100081B0100081B01000820
:100050001B0100081B0100081B0100081B01000810
:100060001B0100081B0100081B0100081B01000800
:100070001B0100081B0100081B0100081B010008F0
:100080001B0100081B0100081B0100081B010008E0
:100090001B0100081B0100081B0100081B010008D0
:1000A0001B0100081B0100081B0100081B010008C0
:1000B0001B0100081B010008000000001B010008D4
:1000C0001B01000800000000000000001B010008E8
:1000D000000000001B0100081B01000800000000D8
:1000E0001B0100081B0100081B010008DFF80CD0F1
:1000F00000F02AF800480047890D0008600400203D
:100100000648804706480047FEE7FEE7FEE7FEE7B1
:10011000FEE7FEE7FEE7FEE7FEE7FEE7390C000834
:10012000ED000008D2B201E000F8012B491EFBD21D
:1001300070470022F6E710B513460A4604461946F2
:10014000FFF7F0FF204610BD064C074D06E0E068C3
:1001500040F0010394E8070098471034AC42F6D30E
:10016000FFF7C8FF380F0008580F0008FEE7704778
:1001700070B5044600F000F90546601C02D0044842
:100180000078044400F0F8F8401BA042FAD370BD98
:100190000C0000202DE9F84FDFF89C91002409F1B4
:1001A000040A0AF1040B23460F270BF1040EBBE0EF
:1001B0000125A5402A40AA4276D1DFF880C14E68C9
:1001C000A6EB0C0866452BD00DDC032E34D005DCE5
:1001D00036B3012E19D0022E2FD11BE0112E16D0CE
:1001E000122E2AD119E0B8F5881F19D006DCB8F50F
:1001F000803F15D0B8F5801F1FD111E0B8F5001F62
:100200000ED0B8F5041F18D10AE0CB6815E0CB6812
:100210001B1D12E0CB6808330FE0CB680C330CE0F9
:100220008B682BB1012B4FF0080303D0456104E02C
:10023000042302E0056100E00023FF2A01D80646FE
:1002400001E000F104064FEA840501D9A5F120057B
:10025000D6F8008007FA05FC28EA0C0803FA05F531
:1002600048EA0508C6F800804D68ED005BD5344DBE
:10027000AE6946F00106AE61AD6924F0030605F0F3
:10028000010500952F4D06EB050CDCF80850A6077C
:10029000360F07FA06F825EA0805DFF8AC80404576
:1002A00003D14FF0000810E03DE0DFF8A0804045AA
:1002B00002D14FF0010808E0DFF89480404502D1F8
:1002C0004FF0020801E04FF0030808FA06F848EA88
:1002D0000508CCF808804D68D9F80060ED034D465C
:1002E00001D5164300E096432E604D68DAF80060B1
:1002F000AD03554601D5164300E096432E604D6888
:10030000DBF80060ED025D4601D5164300E0964340
:100310002E604D68DEF80060AD02754601D51643CB
:1003200000E096432E60641C0A6832FA04F57FF4FC
:100330003FAFBDE8F88F000000040140000011103D
:10034000001002400000014000080140000C014084
:10035000001001408068084000D001207047C2684A
:100360000A4201D041617047016170470AB10161E1
:1003700070470904FBE700000148806870470000EF
:100380000C000020024881680278114481607047A7
:100390000C000020074810B5016841F01001016011
:1003A000032000F067F8002000F006F800F024F8C1
:1003B000002010BD0020024070B50D4D04464FF4E2
:1003C0007A712878B1FBF0F00A490968B1FBF0F0C6
:1003D00000F0BEFA48B9102C07D200222146501E68
:1003E00000F028F800206C6070BD012070BD000096
:1003F0000C000020180000200C4808B5816941F06D
:1004000001018161816901F001010091C16941F03F
:100410008051C161C06900F080500090044841687B
:1004200021F0E06141F00071416008BD0010024020
:1004300000000140F0B40E4B1B680C46C3F30223CE
:10044000C3F10705042D00D90425191D072901D280
:10045000002300E0DB1E012606FA05F1491E2140BB
:1004600099409E40761E16403143F0BC00F06CBCB3
:100470000CED00E0064900F0070208684FF6FF03A4
:10048000184040EA0220034A104308607047000009
:100490000CED00E00000FA052DE9F0470F460500DD
:1004A00061D0434E306800F00700B84209D230688E
:1004B00020F0070038433060306800F00700B84291
:1004C00051D128683B4C810712D5400703D560689D
:1004D00040F4E06060602878000703D5606840F46D
:1004E000605060606068A96820F0F00008436060B8
:1004F0002878C00728D06868012810D02168022811
:1005000010D0890700292EDA616821F00301014328
:100510006160FFF731FF804641F288390DE02168C4
:100520008903EFE78901EDE7FFF726FFA0EB08015C
:10053000494502D90320BDE8F0876068696800F08A
:100540000C00B0EB810FEFD1306800F00700B8422B
:100550000BD9306820F0070038433060306800F075
:100560000700B84201D00120E5E72878400705D50B
:100570006068E96820F4E06008436060287800075C
:1005800006D56068296920F4605040EAC1006060C7
:1005900000F018F86168084AC1F30311515CC840C3
:1005A0000649086006480068FFF706FF0020C2E71A
:1005B0000020024000100240280F00081800002010
:1005C0001000002012A185B00FC98DE80F0014A003
:1005D000144A006804905168134801F00C03042B7E
:1005E00010D0082B0ED1C1F38343C9031DF80300BB
:1005F0000AD5516804AAC1F34041515C0A4A5043EC
:10060000B0FBF1F005B0704708494843FAE7000035
:1006100002030405060708090A0B0C0D0E0F101043
:10062000010200000010024000127A0000093D00A3
:100630002DE9F84F040070D02078C04DC00749D094
:100640006868C0F38100012807D06868C0F38100A2
:10065000022809D16868C00306D52868800339D507
:1006600060680028E7D035E06068B0F5803F0BD0C7
:1006700010B1B0F5A02F11D0286820F48030286088
:10068000286820F4802002E0286840F48030286048
:10069000606890B1FFF770FE06460AE0286840F4F3
:1006A00080202860F0E700BFFFF766FE801B64280B
:1006B00073D828688003F7D50CE0FFF75DFE064687
:1006C00005E000BFFFF758FE801B6428F0D82868BB
:1006D0008003F7D420789A4E80074FF001094FF03D
:1006E000000839D5686810F00C0F07D06868C0F3AF
:1006F0008100022809D16868C00306D428688007F1
:1007000014D52069012808D110E02069B0B1C6F8DD
:100710000090FFF731FE074605E00AE1FFF72CFEE7
:10072000C01B0228C4D828688007F7D528686169EB
:1007300020F0F80040EAC10028600DE0C6F8008013
:10074000FFF71AFE074604E0FFF716FEC01B02285B
:1007500023D828688007F7D4207800072CD579485B
:10076000A169D9B1C0F80090FFF706FE074604E082
:10077000FFF702FEC01B02280FD8686A8007F7D572
:1007800071484FF4FA510068B0FBF1F0009000BFDF
:100790000098411E0091FAD20EE080E0C0F800807F
:1007A000FFF7EAFD074604E0FFF7E6FDC01B02285D
:1007B00075D8686A8007F7D42078400760D5E86963
:1007C0000027C00008D4E86940F08050E861E8697B
:1007D000012700F0805000905C480168C90513D4DF
:1007E0000168834641F480710160FFF7C5FD8246D0
:1007F00006E000BFFFF7C0FDA0EB0A0064284ED85A
:10080000DBF80000C005F5D5E06801280AD008B182
:10081000052813D0286A20F001002862286A20F0F9
:10082000040002E0286A40F001002862E06841F21A
:10083000883B98B1FFF7A0FD82460BE0286A40F0A4
:1008400004002862EEE700BFFFF796FDA0EB0A0167
:1008500059455AD8286A8007F6D50CE0FFF78CFD79
:10086000824605E0FFF788FDA0EB0A0159454CD808
:10087000286A8007F6D41FB1E86920F08050E8614B
:10088000E06988B36968C1F38101022944D0022874
:10089000C6F8608004D0FFF76FFD044638E034E00E
:1008A000FFF76AFD074604E0FFF766FDC01B02285C
:1008B0002BD828688001F7D4206AB0F5803F05D195
:1008C0006868A16820F4003008436860D4E9080132
:1008D0000843696821F4741108436860C6F86090A1
:1008E000FFF74AFD044606E025E000BFFFF744FDA0
:1008F000001B022809D828688001F7D51BE000BF3B
:10090000FFF73AFD001B022802D90320BDE8F88F4B
:1009100028688001F4D40EE00128F7D06868226AC4
:1009200000F48031914204D1616A00F47010884271
:1009300001D00120EAE70020E8E7000000100240B3
:100940000000424280044242180000200070004033
:1009500010B5401EB0F1807F01D3012010BD4FF0D3
:10096000E02460610F21601700F0EEF90020A06123
:1009700007202061002010BD70B590F83C20012AAE
:1009800019D0012400F83C4F0222427050F83C3C40
:100990005A689D6822F070060A684968324325F05B
:1009A000800529435A6050F83C2C91604470002126
:1009B0000170084670BD022070BD10B5040003D060
:1009C00094F83D0010B107E0012010BD002084F82C
:1009D0003C00204600F00CF8022084F83D00211D68
:1009E000206800F04DF9012084F83D00002010BD82
:1009F00008B500680649884208D10648816941F473
:100A000000618161806900F40060009008BD000011
:100A1000002C014000100240022180F83D100168C6
:100A20008A6802F00702062A03D00A6842F001022F
:100A30000A60012180F83D100020704770B504461F
:100A400090F83C00012817D0012584F83C50022082
:100A500084F83D002068826822F0770222F47F4209
:100A600082600868502830D00DDC20284DD005DC8D
:100A700098B310283BD148E0022070BD302844D004
:100A8000402834D139E0602828D0702806D0B0F54D
:100A9000805F2CD0B0F5005F29D10AE0CB68D1E9A6
:100AA0000121206800F01AF92068816841F077017F
:100AB00009E0CB68D1E90121206800F00FF9206836
:100AC000816841F48041816011E0CA68496820680A
:100AD00000F016F95021206807E016E0CA6849685E
:100AE000206800F01EF96021206800F001F984F808
:100AF0003D50002084F83C0070BDCA6849682068F9
:100B000000F0FEF840212068EFE722680146104619
:100B1000EBE7FEE770B586B000241A480094019414
:100B200002940394816941F020018161816901F09F
:100B300020010491816941F0040181618069124EB4
:100B400000F004000490002202213046FFF70EFC62
:100B5000012291023046FFF709FC40F202400125D4
:100B6000CDE900050220CDE9024069463046FFF795
:100B700011FB28038DE8310069463046FFF70AFB78
:100B800006B070BD001002400008014010B586B0EC
:100B900000241248009401940294039404940E4992
:100BA000059401602F21C0E901144FF6FE71C0E9E0
:100BB000031444618461FFF700FF4FF480500090FC
:100BC00069460648FFF73AFF049404A903480594D0
:100BD000FFF7D2FE06B010BD002C01401C00002023
:100BE000FEE7704770477047FFF7CCBB30B58FB05A
:100BF00028216846FFF79DFA14210AA8FFF799FA01
:100C000002240120049000941020059000254FF448
:100C10002010CDE9085007946846FFF709FD0AA99E
:100C20000F2081E831006002CDE90D0501210AA8FD
:100C3000FFF732FC0FB030BD0D48016841F00101F3
:100C4000016041680B4A1140416001680A4A114045
:100C50000160016821F480210160416821F4FE01F6
:100C600041604FF41F0181600449C0030860704770
:100C7000001002400000FFF8FFFFF6FE08ED00E064
:100C800070B50268134B144C4FF08046984203D065
:100C9000B04201D0A04203D122F070054A682A4335
:100CA000984203D0B04201D0A04203D122F4407454
:100CB000CA6822434C6922F08002224302608A689B
:100CC000C2620A688262984201D109690163012106
:100CD000416170BD002C01400004004010B58468E3
:100CE00042EA032224F47F440A432243826010BD77
:100CF000826822F070020A4342F007018160704767
:100D000010B5036A046A24F001040462846924F0C3
:100D1000F00444EA021423F00A020A4384610262E6
:100D200010BD10B5036A23F0100303628369046ADF
:100D300023F4704343EA023224F0A00343EA011192
:100D40008261016210BDFEE70907090E002804DB7D
:100D500000F1E02080F80014704700F00F0000F16F
:100D6000E02080F8141D704702E008C8121F08C177
:100D7000002AFAD170477047002001E001C1121F1C
:100D8000002AFBD170470000FFF704FBFFF72EFF9E
:100D9000FFF7C0FEFFF7FAFE5F48FFF73DFE0122B6
:100DA000DFF87891150329464846FFF7DFFADFF8A8
:100DB00070B1594C4FF0000AABF1040800222946EB
:100DC0004E464846FFF7D2FA1220FFF7D1F901222A
:100DD00029463046FFF7CAFA20685746C0F824A0D3
:100DE00004E029463046FFF7B5FA18B92068406A92
:100DF0000A28F6D32068416A89B2A8F802100A29A5
:100E000000D3FEE7BA464762374604E02946384633
:100E1000FFF7A0FA18B12068406A2D28F6D32168A0
:100E2000486A80B2A8F802002D2801D2052800D80F
:100E3000FEE75646C1F824A004E029463846FFF7ED
:100E400089FA18B92068406A5A28F6D32068416A9E
:100E50005A2902D2416A462900D8FEE7466204E0D8
:100E600029463846FFF776FA18B12068406A5F28AD
:100E7000F6D32068416A5F2902D2406A4B2800D825
:100E8000FEE788F800602068466204E0294638469C
:100E9000FFF760FA18B92068406A4128F6D3206845
:100EA000426A412A02D2426A2D2A00D8FEE74662EF
:100EB00004E029463846FFF74DFA18B12068406A29
:100EC0005028F6D32068416A502902D2406A0A2885
:100ED00000D8FEE798F800101BF801205206120E09
:100EE0000BF80120B8F802302D2B02D942F0010294
:100EF00001E022F001020BF80120491CC8B288F879
:100F000000000828BFD34FF480610648FFF727FA96
:100F10006420FFF72DF951E71C000020000C014070
:100F20000400002000080140000000000000000054
:100F30000102030406070809580F000800000020FA
:100F40001C000000680D0008740F00081C00002041
:100F500044040000780D00080000000000000000BC
:100F60000000000001000000100000000000000070
:040F70000024F40065
:04000005080000ED02
:00000001FF
