:020000040800F2
:10000000780E002065010008D32A0008FD270008AB
:10001000D12A0008E1020008374000080000000073
:100020000000000000000000000000004F2B00084E
:100030000904000800000000E12A0008512B000814
:100040007F0100087F0100087F0100087F01000890
:100050007F0100087F0100087F0100087F01000880
:100060007F0100087F0100087F0100087F01000870
:100070007F0100087F0100087F0100087F01000860
:100080007F0100087F0100087F0100087F01000850
:100090007F0100087F0100087F0100087F01000840
:1000A0007F0100087F0100087F0100087F01000830
:1000B0007F0100087F0100087F0100087F01000820
:1000C0007F0100087F0100087F0100087F01000810
:1000D0007F0100087F0100087F0100087F01000800
:1000E0007F0100087F0100087F0100080000000078
:1000F0000000000000000000000000000000000000
:1001000000000000000000007F0100087F010008DF
:100110007F0100087F0100087F0100087F010008BF
:100120007F0100087F0100087F0100087F010008AF
:100130007F0100087F0100087F0100087F0100089F
:100140007F0100087F0100087F010008D52A000810
:10015000DFF80CD000F08CF800480047C9400008D8
:10016000780E00200648804706480047FEE7FEE775
:10017000FEE7FEE7FEE7FEE7FEE7FEE7FEE7FEE757
:10018000E92B0008510100082DE9F05F0546002029
:1001900092469B4688460646814640241BE02846F8
:1001A00041464746224600F020F853465A46C01AB8
:1001B000914110D311461846224600F04AF82D1AF4
:1001C00067EB01084F4622460120002100F041F86C
:1001D00017EB00094E41201EA4F10104DFDC484664
:1001E00031462A464346BDE8F09F202A04DB203AE8
:1001F00021FA02F00021704721FA02F3D040C2F147
:100200002002914008431946704740EA01039B07CA
:1002100003D009E008C9121F08C0042AFAD203E07B
:1002200011F8013B00F8013B521EF9D27047D2B2DF
:1002300001E000F8012B491EFBD270470022F6E7CF
:1002400010B513460A4604461946FFF7F0FF20464C
:1002500010BD202A04DB203A00FA02F1002070478A
:100260009140C2F1200320FA03F3194390407047F4
:10027000064C074D06E0E06840F0010394E80700F3
:1002800098471034AC42F6D3FFF766FF14420008DB
:100290003442000870B5044600688168C943C90744
:1002A0001CD1816821F00101816000F047FE054604
:1002B0000FE000BF00F042FE401B022809D9A06AEF
:1002C00040F01000A062E06A40F00100E06201200E
:1002D00070BD20688068C043C007EBD0002070BDAF
:1002E000FEE7000070B50546D0F87803C46994F8BD
:1002F0004E0003281BD0042818D1217B284603F088
:1003000065F9012812D1217B284603F04AF9A16A38
:10031000814214D0628B824211D2091AA162216AF1
:10032000084420625FF0030084F84E0070BD237B18
:10033000628B2846216A02F0F9FC0420F4E70020D1
:1003400084F84E00284602F055FE70BDF8B506460A
:10035000D0F878030125C46994F84D0001280AD02B
:10036000022807D1617B304603F030F9012811D013
:1003700002281AD0F8BD228B606A0095637B9042F8
:1003800000D882B23046E16902F0E0FC022084F835
:100390004D00F8BD208B626A0021824208D9121AF2
:1003A0006262E3691844E06103D084F84D50F8BDFF
:1003B000616284F84D10304602F01FFEF8BD000067
:1003C00010B500224FEA020100EB8203521CC3F871
:1003D00080130F2AF8D300224FF400738418521CA4
:1003E00084F81C119A42F9D3017041700122827085
:1003F000C0F8C013027640238371417680F81C1345
:1004000080F81D23002010BD704700002DE9F04149
:10041000044621B14FF40060E060C000A060E069D4
:100420000025002861D028462368402619683A4AEA
:100430001140D4E902273A43024342F400700843D2
:10044000186020680768012000F096FA20680760AD
:100450002068466020684668012000F08DFA206818
:100460004660206885602068C560216888694FF60D
:100470004172104040F08000886120688669012048
:1004800000F07AFA206886612068C5612068C56935
:10049000012000F071FA2068C561226802F58052DF
:1004A00090691E4908401E4901439161206800F58A
:1004B00080508569012000F05FFA206800F58050C7
:1004C00085612068174900F580500160206800F5BB
:1004D00080500568012000F04FFA206800F5805038
:1004E0000560A069012803D009E04FF480609BE714
:1004F000206800F58050C1690B4A1143C1616069F1
:100500000A4982880A640278D0F8010042EA002091
:100510004864BDE8F08100000F8120FF233FDEF832
:10052000040020020020C1024000010000800240BF
:100530007047A122027421224274002242828282E8
:100540000722C28202F07DBDF8B50024009490F825
:1005500024202546012A12D0012280F824204A684E
:100560001F23072A0DD20668776B521E02EB820208
:1005700093409F430B6893401F43776319E0022029
:10058000F8BD06680D2A0AD2376BD21F02EB820231
:1005900093409F430B6893401F43376309E0F76A1A
:1005A0000D3A02EB820293409F430B6893401F4336
:1005B000F7620A68072306680A2A0AD3F7680A3A24
:1005C00002EB420293409F438B6893401F43F760C6
:1005D00008E0376902EB420293409F438B689340E7
:1005E0001F4337610A68102A01D0112A20D1124B0B
:1005F00002689A4217D193681B0219D4936843F496
:10060000000393600968102912D10C490C4A09684B
:10061000B1FBF2F101EB8101490000E0491E0091BC
:100620000029FBD104E0816A41F0200181620124AC
:1006300080F824502046F8BD00240140140000201A
:1006400040420F002DE9F0414FF0000704003D4605
:100650007ED0A06A002628B9E66284F8246020468D
:1006600000F07EF82046FFF715FEA16AC90600D407
:1006700020B1A06A40F01000A06269E0A16A21F4F4
:10068000885141F00201A1626268E169237B0A435B
:1006900047EA43010A43A1684FF48077B94209D081
:1006A000012907D05FF0000194F814C0BCF1010FDC
:1006B00002D00AE03946F7E7F3B1A36A43F020031A
:1006C000A362E36A43F00103E3622368D3F804C042
:1006D0002CF4694C4CEA010CC3F804C021688B6807
:1006E000DFF870C003EA0C0313438B60A168B942C2
:1006F0000BD0012909D00CE0DFF85CC0A3690CEB3A
:1007000043330B4343F40061DFE7218A0D05A5F570
:1007100080152168CB6A23F470032B43CB622168D8
:1007200089680E4B1940914208D1E662A16A21F016
:10073000020141F00101A162BDE8F081A06A20F050
:10074000020040F01000A062E06A40F00100E062A8
:100750000120F1E7FDF7E1FF00E0FFFFFE0E1FFFC4
:1007600010B586B0002100910191029103910068BB
:100770001649884227D11648816941F40071816188
:10078000816901F400710491816941F00401816182
:10079000816901F004010491816941F010018161D6
:1007A0008069032400F0100004904020CDE900048B
:1007B0006946084800F0C6FA3020CDE900046946D1
:1007C000054800F0BFFA06B010BD0000002401404B
:1007D00000100240000801400010014070B5040004
:1007E00003D094F8200010B104E0012070BD204631
:1007F00000F082F82068016821F00201016000F039
:100800009DFB0546052604E000F098FB401B0A28E6
:1008100011D8206840688007F6D42068016841F04C
:100820000101016000F08AFB05460BE000F086FB49
:10083000401B0A2806D9606A40F40030606284F8E0
:100840002060D2E720684068C007EFD0207E0128F2
:10085000206801683DD021F080010160607E0128A0
:100860002068016838D021F040010160A07E012895
:100870002068016833D021F020010160E07E01286A
:10088000206801682ED041F010010160207F01280E
:100890002068016829D021F008010160607F0128EB
:1008A0002068016824D021F004010160D4E902012C
:1008B0000843D4E90412114308436168491E084300
:1008C0002168C86100206062012084F820000020B7
:1008D00070BD41F08001C0E741F04001C5E741F043
:1008E0002001CAE721F01001CFE741F00801D4E769
:1008F00041F00401D9E7000010B586B00021009155
:1009000001910291039100681749884229D1174843
:10091000C16941F00071C161C16901F000710491C8
:10092000816941F0200181618069114C00F0200053
:1009300004900120009002906946204600F002FADF
:1009400002210091019103916946204600F0FAF9D5
:100950000848416821F4C04141F0E06141F4C041E0
:10096000416006B010BD000000640040001002406D
:10097000001401400000014070B5044600F0DEFAAA
:100980000546601C02D004480078044400F0D6FA02
:10099000401BA042FAD370BD080000202DE9F843A7
:1009A0004FF000050400A946009503D094F84400D8
:1009B00018B107E00120BDE8F88384F845502046CF
:1009C00000F0BEF85948416821F4000141604168D7
:1009D000226A11434160206800F58050016841F0AF
:1009E0000101016000F0AAFA06464FF4FA7708E028
:1009F00000F0A4FA801BB84203D9032004F8440F86
:100A000057E0206800F580500068C007F0D12068EA
:100A1000006920F01C0601F001F84549454A0144EF
:100A2000914202D246F0080606E043490844434991
:100A3000884201D246F00C06206806614FF400425D
:100A40000021204600F042F90126A8BBFF20FFF755
:100A500093FF606888B300F071FA804641F28837EE
:100A60006A460121204600F0EFF800F067FAA0EB9B
:100A70000800B84217D800984007F1D54FF48052CB
:100A80000021204600F022F9B0B900F057FA804664
:100A90006A460121204600F0D7F800F04FFAA0EB9B
:100AA0000800B8420AD901212046FFF7AFFC04F83C
:100AB000446F032065707EE724E018E0009880060C
:100AC000E6D56A461021204600F0BEF8D0B900985D
:100AD000410703D54FF40061E16000E0E560800765
:100AE00001D5A56019E04FF48040A06015E0E068F2
:100AF000A168C00840EA510082B20021204600F0FF
:100B0000E5F830B101212046FFF780FC84F844600D
:100B100050E740F6FF70FFF72FFF49462046FFF7EA
:100B200075FC84F84460002045E7000000000140A7
:100B300000D3CEFEC0E1E40040F1E9FD40787D0144
:100B400070B586B000250095019502950395006863
:100B50003649884267D13648416941F48041416154
:100B6000416901F480410491416941F400414161CE
:100B7000416901F400410491416941F480314161CE
:100B8000416901F480310491816941F01001816172
:100B9000816901F010010491816941F004018161D2
:100BA000816901F004010491816941F008018161CA
:100BB000816901F008010491816941F0200181619E
:100BC0008069022400F0200004900E20CDE900048A
:100BD00069461848039400F0B5F80F208DE83100FD
:100BE0006946154800F0AEF86002CDE90005134EE5
:100BF00069463046029500F0A5F84FF46450CDE9FF
:100C0000000469463046039400F09CF84FF4F85015
:100C10008DE8310069460A4800F094F809484168B7
:100C200041F0E461416006B070BD00000080024008
:100C3000001002400010014000080140000C01407B
:100C400000140140000001402DE9F047044690F8EF
:100C50004400914682281DD0822084F844002268F6
:100C600010694FF6FF7500F01C03208A05EAC020CA
:100C700018434FF4F86303EA8111014321F00200A5
:100C800040F00105156100F059F9064601274FF4BF
:100C9000803810E00220BDE8F08700BF00F04EF978
:100CA000801B404505D304F8447F0020607003207A
:100CB000F1E720680569E807F0D12068406981B252
:100CC000C9F8001084F844700020E4E72DE9F041F1
:100CD000044690F8440042281ED0422084F8440084
:100CE000236818694FF6FF7600F01C05208A06EA93
:100CF000C02028434FF4F86505EA8111014390B202
:100D000041F0030558612068056100F017F90646B7
:100D100001274FF4803810E00220BDE8F08100BFC9
:100D200000F00CF9801B404505D304F8447F0020F7
:100D300060700320F1E720680569E807F0D184F8C6
:100D40004470EAE72DE9F84FDFF8B891002409F183
:100D5000040A0AF1040B23460F270BF1040EC9E025
:100D60000125A5402A40AA427DD1674ED1F804C092
:100D7000ACEB0608B44532D014DCBCF1030F3AD01A
:100D800009DCBCF1000F2AD0BCF1010F1CD0BCF172
:100D9000020F31D11DE0BCF1110F17D0BCF1120FC1
:100DA0002AD119E0B8F5881F19D006DCB8F5803FC4
:100DB00015D0B8F5801F1FD111E0B8F5001F0ED077
:100DC000B8F5041F18D10AE0CB6815E0CB681B1DED
:100DD00012E0CB6808330FE0CB680C330CE08B6873
:100DE0002BB1012B4FF0080303D0456104E004232D
:100DF00002E0056100E00023FF2A01D8064601E079
:100E000000F104064FEA840501D9A5F12005D6F8C2
:100E1000008007FA05FC28EA0C0803FA05F548EA01
:100E20000508C6F800804D68ED0062D5374DAE6903
:100E300046F00106AE61AD6924F0030605F0010538
:100E40000095334D06EB050CDCF80850A607360F6D
:100E500007FA06F825EA0805DFF8B880404503D10F
:100E60004FF0000817E044E0DFF8AC80404502D1C5
:100E70004FF001080FE0DFF8A480404502D14FF0A9
:100E8000020808E0DFF89880404502D14FF00308DF
:100E900001E04FF0040808FA06F848EA0508CCF823
:100EA00008804D68D9F80060ED034D4601D5164322
:100EB00000E096432E604D68DAF80060AD035546B9
:100EC00001D5164300E096432E604D68DBF80060C4
:100ED000ED025D4601D5164300E096432E604D6855
:100EE000DEF80060AD02754601D5164300E096437A
:100EF0002E60641C0D682A46E5407FF431AFBDE8E2
:100F0000F88F0000000401400000111000100240A2
:100F10000000014000080140000C014000100140A9
:100F200000140140C2680A4201D04161704701616A
:100F300070470AB1016170470904FBE70148806806
:100F40007047000008000020D0F8C00202F0FBBA91
:100F5000D0F8C00202F001BB006802F011BE0068C8
:100F600002F012BE01EB810100EBC10090F85C00C1
:100F7000704701EB810100EBC100C06C704710B5F8
:100F8000044690F8B802012809D0012084F8B8027C
:100F9000206802F004FE002084F8B80210BD022090
:100FA00010BD2DE9FE430546DDE90B7095F8B8420A
:100FB000DDF828C0012C1CD001EB81044FF00109A1
:100FC00005EBC40485F8B892002684F83D6084F8E7
:100FD0003830A4F8400084F8391084F83F7002F0EB
:100FE0007F0884F83A805FEA026805D584F83B9070
:100FF00004E00220BDE8FE8384F83B6084F83CC036
:10100000CDF800C0CDE90170286802F029FE85F80E
:10101000B862EFE770472DE9F00301EB8104DDE9E9
:1010200006C9DDE9087500EBC404022684F83B20FC
:1010300084F83F30BCF1000F0AD084F842600025EC
:101040006BB1012B2DD0022B12D0032B16D10FE048
:101050004FF0030884F8428084F83D50EFE7BCF17C
:10106000010F0BD152B9CFB9012284F8512003E00E
:10107000A2B194F85020A2B184F84260C4E911975B
:1010800084F85C50E56484F8391084F85D5004F10C
:1010900038010068BDE8F00302F052BE94F8512018
:1010A000E9E784F84250E9E72DE9F0410446006899
:1010B000064602F070FD01287ED1206802F029FF6B
:1010C000002879D0206802F024FF800203D521682F
:1010D0004FF400104861206802F01BFFC00203D5E6
:1010E00021684FF480104861206802F012FF40012F
:1010F00003D521684FF080604861206802F009FF45
:10110000800702D5216802204861206802F001FFB3
:1011100080000ED521684FF000504861D6F8400499
:10112000C00706D12046FFF713FF0121206802F017
:10113000D5FE206802F0EDFEC00102D5204601F088
:10114000DBFA206802F0E5FE000705D5204600F036
:10115000BAF8216808204861206802F0DAFE8001B0
:1011600023D5206802F0E8FD074600254FF001086E
:1011700014E000BF05F00F0108FA01F038420CD06E
:1011800006EB4510D0F80005E9B20004204602D570
:1011900001F08AF801E001F095F96D1CA068A84201
:1011A000E8D821684FF000704861206802F0B1FE75
:1011B000C043C0060ED400E00CE02068816921F035
:1011C00010018161204601F0E1FA2068816941F057
:1011D00010018161BDE8F08170B58AB0040005D0CE
:1011E00094F8B9022568002618B107E001200AB07A
:1011F00070BD84F8B862204600F028F8032084F817
:10120000B902E86BC00500D42661206802F074FCC6
:1012100004F1100128220D466846FEF7F6FF94E817
:101220000F0002F021FC0121206802F09DFE28221F
:1012300029466846FEF7E9FF94E80F0002F004FE35
:10124000012084F8B9020020D1E7000010B586B073
:10125000002100910191029103910068B0F1A04F2B
:101260001FD1114CA06940F00400A061A06969463B
:1012700000F0040004904FF4C06000900B48FFF7AA
:1012800061FD606940F4805060616069002200F493
:10129000805004901146432000F090F9432000F064
:1012A0007FF906B010BD00000010024000080140A8
:1012B000D0F8C00202F0D0B9D0F8C00202F0D0B924
:1012C000006802F038BED0F8C00202F083B910B551
:1012D000044690F8B80201280DD0012084F8B80225
:1012E000206802F025FC0121206802F00BFC0020A0
:1012F00084F8B80210BD022010BD10B5044690F865
:10130000B802012809D0012084F8B802206802F050
:1013100043FE002084F8B80210BD022010BD00007A
:1013200070B504001BD094F83D00002520B984F866
:101330003C50204600F0AEF8242084F83D002068A0
:10134000016821F00101016000F06EFB4D4A616807
:10135000914201D84C4900E04C49884201D2012019
:1013600070BD4B492368B0FBF1F15E6826F03F0683
:101370000E435E606368934206D94FF496735943F7
:101380004FF47A73B1FBF3F12368491C1E6A26F00F
:101390003F06314319626168914210D84900401EEE
:1013A000B0FBF1F2521CC2F30B02042A01D204205A
:1013B00022E0B0FBF1F0401CC0F30B001CE0A3687E
:1013C000F3B301EBC10202EB0116421EB2FBF6F2CF
:1013D000521C42F48042120549D093B301EBC10282
:1013E00002EB0111401EB0FBF1F0401CC0F30B00FA
:1013F00040F4804040F400402168CA694CF6FF7315
:101400009A431043C861D4E90701084321680A6878
:1014100022F0C00210430860D4E9030101432068B0
:10142000826848F2FF339A4311438160D4E9050191
:1014300008432168CA6822F0FF021043C86001E037
:101440000EE016E02068016841F0010101602564AA
:10145000202084F83D00256384F83E50002070BDB4
:1014600001EB4106421EB2FBF6F2521CB3E701202B
:10147000C2E701EB4101401EB0FBF1F0401CC0F39C
:101480000B00B7E7A086010080841E0000093D0024
:1014900040420F0010B586B00021009101910291E9
:1014A000039100680F4988421AD10F4CA06940F09F
:1014B0000800A061A069694600F008000490C020FF
:1014C000009012200190022003900848FFF73AFC98
:1014D000E06940F40010E061E06900F4001004905D
:1014E00006B010BD0054004000100240000C014046
:1014F000024881680278114481607047080000202A
:10150000074810B5016841F010010160032000F0A8
:1015100075F8002000F006F800F024F8002010BD57
:101520000020024070B50D4D04464FF47A712878C2
:10153000B1FBF0F00A490968B1FBF0F000F038FEA9
:1015400048B9102C07D200222146501E00F036F870
:1015500000206C6070BD012070BD000008000020FC
:10156000140000200C4808B5816941F00101816137
:10157000816901F001010091C16941F08051C161AF
:10158000C06900F0805000900448416821F0E0619B
:1015900041F00071416008BD0010024000000140B0
:1015A000002809DB00F01F02012191404009800062
:1015B00000F1E020C0F8001170470000F0B40E4BBD
:1015C0001B680C46C3F30223C3F10705042D00D9A1
:1015D0000425191D072901D2002300E0DB1E012686
:1015E00006FA05F1491E214099409E40761E16409C
:1015F0003143F0BC02F020BD0CED00E0064900F0E4
:10160000070208684FF6FF03184040EA0220034A29
:1016100010430860704700000CED00E00000FA0580
:10162000014901200862704700000E4230B542A413
:1016300001461DCC89B004AD85E81D0042A41DCC37
:101640008DE81D000020444B444C042941D00BDCA4
:10165000012959D002293AD100F0F6F96168C1F3A5
:101660008131491C490030E0082948D010292ED189
:1016700062682168C9012AD504A8C2F38341415C8C
:10168000D0031BD5E06AE26A00F00F001DF80000ED
:10169000D2030AD5E26AC2F30315E26A6D1CB3FBFA
:1016A000F5F3C2F30322921C5343B3FBF0F09DF811
:1016B0001D2048438A4203D1400801E0284848439E
:1016C0006168490203D440000321B0FBF1F009B086
:1016D00030BDE16A890314E000F0C6F9F7E721683C
:1016E000C900F4D5E06AE16AC0F30310401CB3FB03
:1016F000F0F0C1F30331891C48434000E7E7E16A99
:1017000049030029EBDBE7E7226AC2F30121012943
:1017100003D1920701D5C803D9E7022905D1626A2E
:10172000920702D549F64040D1E70329CFD121687D
:101730008903CCD50B48CAE7000004050607080951
:1017400000000000000D0000010203040506070868
:10175000090A0B0C0D0E0F1040787D01001002409D
:1017600000093D00F0FA02002DE9F8430446007834
:101770005B4DC0074FF0010951D0E8690026C00059
:1017800008D4E86940F08050E861E869012600F07B
:101790008050009053480168C90512D40168804602
:1017A00041F480710160FFF7C9FB074605E000BF07
:1017B000FFF7C4FBC01B642877D8D8F80000C00529
:1017C000F6D5286A10F440701ED0A18801F440714B
:1017D000814219D0286A444920F44070C1F8009031
:1017E00000220A602862C0070ED0FFF7A7FB074659
:1017F00041F2883805E000BFFFF7A0FBC11B41455F
:1018000053D8286A8007F7D5286A616820F44070A9
:10181000084328621EB1E86920F08050E861207812
:10182000800705D56868A16820F4404008436860D7
:101830002078400705D5E86AE16820F400300843C5
:10184000E8622078000705D5E86A216920F4802045
:101850000843E862E86A800302D4E86A400333D5AB
:101860002868C00028D42868400105D5E86AA16925
:1018700000F0F000884225D1E86AA16920F0F0006C
:101880000843E862E86A616920F470400843E8624E
:101890001649C1F87090FFF751FB064608E004E0D6
:1018A000FFF74CFB801B642802D90320BDE8F883B6
:1018B00028688000F4D507E0E86A616900F47040A8
:1018C000884201D00120F1E72078C00605D568687C
:1018D000E16920F48000084368600020E6E700002A
:1018E00000100240007000404004424200004242AA
:1018F0002DE9F0470F46050061D0434E306800F0F7
:101900000700B84209D2306820F007003843306041
:10191000306800F00700B84251D128683B4C81077D
:1019200012D5400703D5606840F4E0606060287815
:10193000000703D5606840F4605060606068A96883
:1019400020F0F000084360602878C00728D068685D
:10195000012810D02168022810D0890700292EDA2A
:10196000616821F0030101436160FFF7E7FA8046F7
:1019700041F288390DE021688903EFE78901EDE73D
:10198000FFF7DCFAA0EB0801494502D90320BDE8C6
:10199000F0876068696800F00C00B0EB810FEFD150
:1019A000306800F00700B8420BD9306820F007001B
:1019B00038433060306800F00700B84201D00120A1
:1019C000E5E72878400705D56068E96820F4E0601D
:1019D000084360602878000706D56068296920F40C
:1019E000605040EAC100606000F03EF86168084A5B
:1019F000C1F30311515CC8400649086006480068FD
:101A0000FFF790FD0020C2E70020024000100240D6
:101A1000F8410008140000200C0000200148006874
:101A20007047000014000020044805490068496818
:101A3000044AC1F30221515CC840704714000020E1
:101A4000001002400842000804480549006849683F
:101A5000044AC1F3C221515CC84070471400002001
:101A60000010024008420008F0B524A289B00FCA55
:101A700004AC84E80F0025A10FC98DE80F002748AA
:101A8000416801F00C02042A04D0082A04D024483A
:101A900009B0F0BD2348FBE704AAC1F38343C9039F
:101AA000D45C28D5C16AC26A01F00F011DF801108B
:101AB000D20316D5C26AC06AC2F30312521CA2FB3B
:101AC0000123C0F30320801CA0FB0415154F002642
:101AD000A1FB070C05FB07C501FB0651FEF754FBF4
:101AE00003E010486043B0FBF1F09DF81D10A142E7
:101AF000CED14008CCE70C486043C9E7000004059C
:101B00000607080900000000000D000001020304A0
:101B100005060708090A0B0C0D0E0F1000100240F5
:101B200000127A0040787D0100093D0030B585B093
:101B30000020029002200190032003900B4C4FF4F0
:101B400080700090A0690D4640F00400A061A0697B
:101B5000694600F0040004900548FFF7F3F8606858
:101B600020F070602843606005B030BD0010024076
:101B7000000801402DE9F84F040070D02078F14DA5
:101B8000C00749D06868C0F38100012807D06868A1
:101B9000C0F38100022809D16868C00306D528680F
:101BA000800339D5A0680028E7D035E0A068B0F5FB
:101BB000803F0BD010B1B0F5A02F11D0286820F4D1
:101BC00080302860286820F4802002E0286840F4F3
:101BD00080302860A06890B1FFF7B0F906460AE0AF
:101BE000286840F480202860F0E700BFFFF7A6F9DE
:101BF000801B642876D828688003F7D50CE0FFF7AF
:101C00009DF9064605E000BFFFF798F9801B6428A0
:101C1000F0D828688003F7D42078CB4E80074FF0A7
:101C200001094FF000073AD5686810F00C0F07D093
:101C30006868C0F38100022809D16868C00306D42F
:101C40002868800715D56069012808D111E060690E
:101C5000B8B1C6F80090FFF771F9804606E042E19E
:101C6000FFF76CF9A0EB08000228C3D828688007AA
:101C7000F6D52868A16920F0F80040EAC100286084
:101C80000DE03760FFF75AF9804605E0FFF756F997
:101C9000A0EB08000228ADD828688007F6D4207889
:101CA00000072ED5A948E169E9B1C0F80090FFF717
:101CB00045F9804606E000BFFFF740F9A0EB0800B9
:101CC000022897D8686A8007F6D5A1484FF4FA51E0
:101CD0000068B0FBF1F0009000BF0098411E009139
:101CE000FAD20EE0B0E00760FFF728F9804605E081
:101CF000FFF724F9A0EB0800022889D8686A80075A
:101D0000F6D42078400763D5E8694FF00008C0009A
:101D100009D4E86940F08050E861E8694FF00108B3
:101D200000F0805000908B480168C90512D401680A
:101D3000834641F480710160FFF700F9824605E0B7
:101D4000FFF7FCF8A0EB0A0064287DD8DBF8000060
:101D5000C005F5D5206901280AD008B1052813D09F
:101D6000286A20F001002862286A20F0040002E0BE
:101D7000286A40F001002862206941F2883B98B14E
:101D8000FFF7DCF882460BE0286A40F00400286286
:101D9000EEE700BFFFF7D2F8A0EB0A01594553D890
:101DA000286A8007F6D50CE0FFF7C8F8824605E000
:101DB000FFF7C4F8A0EB0A01594545D8286A800707
:101DC000F6D4B8F1000F03D0E86920F08050E86144
:101DD000E06AD0B36968C90307D56968C1F38101B6
:101DE000022902D1E96AC9037DD4022808D0E86A31
:101DF00020F48030E862B766FFF7A0F880463BE049
:101E00002868C00005D5E86A616B00F0F0008842E0
:101E100069D1B766FFF792F8804605E0FFF78EF8C4
:101E2000A0EB0800642874D828680001F6D4E86A9A
:101E3000616B20F0F0000843E862E86A216B20F44F
:101E400070600843E86201E063E018E0C6F868905B
:101E5000FFF774F8804605E0FFF770F8A0EB080084
:101E6000642856D828680001F6D508E0FFF766F820
:101E7000A0EB080064284CD828680001F6D4206A3A
:101E800090B36968C1F38101022949D002283766FD
:101E900003D0FFF753F804463EE0FFF74FF807463C
:101EA00005E000BFFFF74AF8C01B022831D82868B8
:101EB0008001F7D4606AB0F5803F09D1E86A6168B3
:101EC0000843E862E86AE16820F00F000843E8622E
:101ED000D4E909010843696821F474110843686072
:101EE000C6F8609001E028E029E0FFF727F80446F3
:101EF00005E000BFFFF722F8001B022809D8286878
:101F00008001F7D51BE000BFFFF718F8001B02287F
:101F100002D90320BDE8F88F28688001F4D40EE0D0
:101F20000128F7D06868626A00F48031914204D1D8
:101F3000A16A00F47010884201D00120EAE7002075
:101F4000E8E70000001002400000424280044242E4
:101F5000140000200070004030B588B181B1027CCF
:101F6000012A0FD001220274022343740D4B1B6817
:101F700013F4C07F4FF0000306D0042141740374B2
:101F8000012030BD022030BDD1E900410C4305499C
:101F9000091D0D6825F003052C430C604274037481
:101FA000002030BD2C6C004070B5040003D0607C74
:101FB000002610B105E0012070BD2674204600F017
:101FC00043F802206074204600F058F8042578BBDE
:101FD000204600F086FD58BB2068416821F00701CB
:101FE0004160A06820B11748016821F0010101603B
:101FF0001448001F0168A26821F460711143016058
:102000006068411C04D10120FFF710FB80B1401E25
:1020100021688A6822F00F0242EA10428A60216831
:10202000CA6860F30F02CA60204600F075FD08B16F
:102030006574C0E7E67301206073A07360740020CC
:1020400070BD0000306C004008B500680849884247
:102050000DD1FFF7E5FA0748C16941F00061C161A0
:10206000C069054900F0006000900120086008BDCB
:1020700000280040001002403C04424270B50400B9
:102080000AD02068416821F008014160FEF756FF40
:1020900005464FF47A7608E0012070BDFEF74EFF4A
:1020A000401BB04201D9032070BD20684068000782
:1020B000F4D5002070BD70B5040005D00025A562E0
:1020C00094F8510010B106E0012070BD84F8505022
:1020D000204600F02FF8022084F8510020680168A3
:1020E00021F040010160D4E901010843D4E9031261
:1020F0001143084361690843218B01F400710843CF
:10210000E1690843216A0843A16A0843216808601D
:10211000A069042101EA1040216848602068C16973
:1021200021F40061C1616565012084F8510000203F
:1021300070BD000030B585B0002400940194029475
:10214000039400681649884228D11648C16941F4B1
:102150000041C161C16901F400410491816941F00C
:10216000100181618069104D00F0100004904FF45F
:10217000A050009002200190039069462846FEF787
:10218000E1FDE814CDE90004694628460294FEF713
:10219000D9FD0648416841F0B851416005B030BDF5
:1021A000003C0040001002400010014000000140CF
:1021B00010B5401EB0F1807F01D3012010BD4FF05B
:1021C000E02460610F21601701F036FF0020A0615C
:1021D00007202061002010BD70B5040004D094F8E1
:1021E0003900002510B106E0012070BD84F8385098
:1021F000204600F023F8242084F839002068C168C4
:1022000021F40051C160204600F018FD20680169EA
:1022100021F4904101612068416921F02A01416166
:102220002068C16841F40051C160E563202084F852
:10223000390084F83A00002070BD000000B585B078
:102240000021009101910291039100681249884296
:1022500020D11248C16941F40031C161C16901F462
:1022600000310491816941F02001816180696946F2
:1022700000F0200004906020009002200190039064
:102280000748FEF75FFD0748416841F0E06141F013
:102290000801416005B000BD00440040001002404C
:1022A00000140140000001402DE9F05F074600687E
:1022B0000D4600EB4114D4F808054FF0040B42071B
:1022C00001EB85004FF0050A4FF0100807EBC00640
:1022D00008D5C4F808B5D4F80C0540F00200C4F8DD
:1022E0000C0530E0D4F80805800601D5202028E050
:1022F000D4F808054FF0080900070FD5D4F80C05ED
:1023000040F00200C4F80C0586F85DA0C4F808850A
:10231000C4F80895386801F042FC14E0D4F80805C8
:10232000400510D5D4F80C0540F00200C4F80C05A7
:10233000386801F034FCC4F8088586F85D904FF4E5
:102340008060C4F80805D4F8080580050ED5D4F8D7
:102350000C0540F00200C4F80C05294604F5A16400
:10236000386801F01CFC4FF400708AE0D4F80805CE
:102370004FF00001C0074FF0010230D086F85D2019
:10238000B165C4F8082596F83F0030B1022804D0A2
:10239000032811D0012815D01AE0D4F80C0540F01C
:1023A0000200C4F80C05294604F5A164386801F060
:1023B000F6FBC4F800800BE0D4F8000540F00050B4
:1023C000C4F8000586F85C2029463846FEF722FE50
:1023D00016F8500F80F001003070BDE8F09FD4F87F
:1023E0000805800736D5D4F80C0520F00200C4F8A3
:1023F0000C0596F85D000223012808D0052809D0B5
:1024000006280AD0082808D0032820D016E086F82D
:102410005C2013E086F85CA010E0B06D401CB06555
:10242000032814D9B16586F85CB000BFD4F8000564
:1024300020F0804040F00040C4F80005C4F80835A2
:1024400096F85C2029463846FEF7E4FDC5E786F895
:102450005C30EBE7D4F80805000614D5D4F80C0579
:1024600040F00200C4F80C05B06D2946401CB06570
:10247000062086F85D0004F5A164386801F08FFB42
:1024800080202060A9E7D4F80805C006A5D596F8F5
:102490003F00032803D020B1022802D00FE0B1652D
:1024A00003E00320B16586F85D00D4F80C0540F028
:1024B0000200C4F80C052946386801F070FBC4F826
:1024C00008858AE72DE9F047026802EB4114D4F849
:1024D00008254FF00403520709D5C4F80835D4F88D
:1024E0000C0540F00200C4F80C05BDE8F087D4F8F4
:1024F000082501EB810596064FF0000200EBC505AB
:102500004FF0020C15D52023C4F8083595F83D305E
:10251000012BEAD185F83D2085F85CC0D4F80C2564
:1025200042F00202C4F80C250068BDE8F04701F053
:1025300036BBD4F8086577064FF0010611D585F84B
:102540005D3085F83D60AA65D4F80C2542F00202A2
:10255000C4F80C25006804F5A16401F020FB4020BC
:1025600010E0D4F80875BF050ED5D4F80C2542F05C
:102570000202C4F80C25006804F5A16401F00FFB09
:102580004FF400702060B0E7D4F80875FF070FD053
:10259000AA65D4F80C2542F00202C4F80C250068A4
:1025A00004F5A16401F0FBFA266085F85D609CE704
:1025B000D4F808754FF0050A5FEA07784FF008076E
:1025C0000DD5C4F80875D4F80C2542F00202C4F801
:1025D0000C25006801F0E3FA85F85DA085E7D4F8E2
:1025E00008854FF010095FEAC86810D5AA65032274
:1025F00085F85D20D4F80C2542F00202C4F80C25C1
:10260000006804F5A16401F0CAFA4846BAE7D4F8B4
:1026100008855FEA08680FD5D4F80C2542F002025D
:10262000C4F80C25006804F5A16401F0B8FA06208E
:1026300085F85D008020A5E7D4F808855FEA485852
:1026400012D5D4F80C2542F00202C4F80C2500681B
:1026500004F5A16401F0A3FAC4F800904FF480607F
:10266000206085F85D7040E7D4F80875BF078AD50B
:10267000D4F80C7527F00207C4F80C7595F85D7056
:10268000012F0AD0032F17D0042F15D0052F16D0F5
:10269000062F17D0082F15D027E085F85C6095F835
:1026A0003F20022A01D0032A1FD195F8512082F041
:1026B000010285F8512018E085F85CC015E085F826
:1026C0005CA012E0AE6D761CAE65032E03D9AA6540
:1026D00085F85C3001E085F85CC0D4F8002522F074
:1026E000804242F00042C4F80025C4F808C595F8BD
:1026F0005C20FEF78FFCF8E67CB504680546D4F84C
:1027000040040190D4F8400420F02E00009001987D
:10271000800709D50198C00702D02846FEF714FCAF
:10272000009840F0020000900198000724D500981E
:1027300040F008000090019840071AD5A8690228C7
:1027400003D0E86801280CD00FE00198C0F34140A5
:102750000228286803D0012101F0C0FB05E0022116
:10276000FAE74EF66020C4F804042846FEF7A4FDFC
:1027700002E02846FEF79CFD01988006009802D5ED
:1027800040F020000090C4F840047CBD2DE9F041E9
:10279000024600680646016AC1F3434301F00F0791
:1027A000C1F30A14022B25D1002C23D007EB87019B
:1027B00002EBC105696C00291CD0224601F0ADFB7B
:1027C000686C20446864E86C2044E86406EB4710B9
:1027D000D0F81015084A11420CD0D0F8001521F09D
:1027E000804141F00041C0F8001515F8500F80F00D
:1027F00001002870BDE8F0810000F81FFEE700002E
:102800003EB500240D480094019402940A49846066
:10281000016004730475012505614FF46021446073
:10282000C161FDF70FFF0620CDE90005694602945E
:102830000248FDF789FE3EBD002401404000002013
:102840000948084901601021416000218160C16090
:1028500001614161017641768176C17601774177E8
:10286000FDF7BCBF006400407000002028B10022CA
:102870004FF400710248FEF75CBB0122F8E700004C
:10288000001001400D480C490160012141600182A6
:10289000426900211170436980225A704369E12224
:1028A0009A704269D17042691171426951718161B6
:1028B000C1610162FEF772B80080024098000020FA
:1028C0002DE9F04F85B000255A48009501950295F5
:1028D0000395816941F040018161816901F0400106
:1028E0000491816941F010018161816901F0100159
:1028F0000491816941F004018161816901F0040161
:102900000491816941F008018161816901F0080148
:102910000491816941F0200181618069002200F009
:102920002000049010214448FEF703FB00220421FC
:102930004248FEF7FEFA4FF48058002241464048D4
:10294000FEF7F7FADFF8FCA042F2980900224946A8
:102950005046FEF7EEFA0122DFF8ECB05702394696
:102960005846FEF7E6FA102001260224CDE90006BB
:10297000CDE9025469463048FEF7E4F90420CDE978
:102980000006CDE9025469462C48FEF7DBF9CDE993
:102990000254CDE9008669462948FEF7D3F9DFF8ED
:1029A000AC806003CDE90008694602962348FEF733
:1029B000C9F9A003CDE90004694620480394FEF755
:1029C000C1F9CDE90254CDE9009669465046FEF7BB
:1029D000B9F94020CDE90004694658460394FEF752
:1029E000B1F9CDE90254CDE9007669465846FEF7C3
:1029F000A9F9E001CDE900040320039069460E48DF
:102A0000FEF7A0F90097CDE9018569460B48FEF76E
:102A100099F9CDE90065694609480296FEF792F9F1
:102A2000CDE90045694606480295FEF78BF905B0E9
:102A3000BDE8F08F0010024000080140000C01408A
:102A40000018014000140140001001400000121065
:102A50000B480A494FF4007201604FF482714160E3
:102A600000218160C1600161C0E90512C16101629C
:102A7000416281620A21C162FFF71DBB003C004038
:102A80004801002010B501220B490C4800F033FD2D
:102A900008B1FDF74DFD0A49084800F088FF08B16C
:102AA000FDF746FD054800F0C5FF002803D0BDE84E
:102AB0001040FDF73DBD10BD493A0008E00100207F
:102AC00018000020014800F087BE0000E00100204F
:102AD000FEE770470148FEF7E7BA0000B0050020A6
:102AE000704770B50446FEF729FA05464FF47A762A
:102AF00006E0FEF723FA401BB04201D9032070BD67
:102B0000206840688006F4D52068416841F01001D3
:102B10004160002070BD000070B504460068416847
:102B200021F010014160FEF709FA05464FF47A766C
:102B300007E000BFFEF702FA401BB04201D90320B4
:102B400070BD206840688006F4D5002070BD7047D5
:102B5000FEF7CEBC30B59BB038216846FDF76EFB62
:102B6000142116A8FDF76AFB20210EA8FDF766FBCD
:102B70000520009002AA4FF480300421012482E84D
:102B800013000225CDE90850019005944FF4E010A0
:102B9000CDE90A054FF4C0600C9040200D906846C6
:102BA000FEF7E8FF0F20CDE916050025A002CDE9CC
:102BB0001850022116A81A95FEF79AFE13200E90BF
:102BC00020020F90C001159510900EA8FEF7CCFDC5
:102BD00000224FF0C0611046FEF7A8FF01480467CD
:102BE0001BB030BD000042421048016841F00101B5
:102BF000016041680E4A1140416001680D4A114070
:102C00000160016821F480210160416821F4FE0126
:102C10004160016821F0A05101604FF47F018160A3
:102C20000021C1620449C0030860704700100240DF
:102C30000000FFF0FFFFF6FE08ED00E02DE9F04197
:102C4000044600680169E26821F4405111430161C2
:102C50002169A0680843616908432168CA6841F294
:102C60000C639A430243CA6020684169A26921F457
:102C70004071114341611E49206864253226884213
:102C800002D1FEF7E1FE01E0FEF7CEFE00EBC0014F
:102C900001EB001160686FF018078000B1FBF0F2E3
:102CA000B2FBF5F2B1FBF0F37A4303EB8202B1FB26
:102CB000F0F306EB0212B2FBF5F2B3FBF5F302F010
:102CC000F00202EB0312B1FBF0F3B1FBF0F0B0FB4A
:102CD000F5F0784303EB800006EB0010B0FBF5F055
:102CE000216800F00F0010448860BDE8F08100000A
:102CF0000038014010B500224FF6FF7300EB82044C
:102D0000B4F8804324040BD49A4207D002F00F0396
:102D100000EB830041F40041C0F88013D0B210BD35
:102D2000521CD2B20B2AE9D31A46F7E77FB51C46EC
:102D3000012501AE0023009586E80E0002232A46F5
:102D4000214600F0BFFC04B0002070BD7FB51D46D9
:102D500090F81D33089C03B100240123CDE9003114
:102D6000CDE9022402230022294600F0ABFC04B086
:102D7000002070BD70B50446D0F87803C1692046C4
:102D80004031FDF7D6FB050004D1D4F8CC23022155
:102D900020469047284670BD70B50546D0F87803A8
:102DA0000026C469217839B1284600F027F9217836
:102DB000284600F0ABF92670217B39B1284600F097
:102DC0001DF9217B284600F0A1F92673617B39B1FA
:102DD000284600F013F9617B284600F097F96673E6
:102DE000D5F87803C06920B101F046F9D5F8780329
:102DF000C661002070BDFEB50222054601231146C2
:102E000000F062F90646FF2841D0022E3FD201466B
:102E1000284600F0DAFDD0BB502001F0B7F9D5F814
:102E200078130446C861200031D05021FDF706FA1E
:102E300006EB860000EBC60005EB400191F84C0361
:102E4000020603D56070B1F84E03608161782846B0
:102E5000FFF750FF2070014695F81D036389032298
:102E60008DE80D0095F81C336278284600F03BFC95
:102E700021780022284600F003FC00231A460A218C
:102E8000284600F021F9FF2801D0022801D30220B2
:102E9000FEBD00EB800101EBC00005EB400090F8A7
:102EA0004C130A0604D5E173B0F84E13618303E0B6
:102EB000A173B0F84E13218390F854130A0604D579
:102EC000E173B0F85603608303E0A173B0F85603D2
:102ED0002083A17B2846FFF70DFF6073E17B284626
:102EE000FFF708FF2073208B95F81D130226009131
:102EF000CDE9016095F81C33A27B617B284600F088
:102F0000F2FB608B95F81D130091CDE9016095F8F7
:102F10001C33E27B217B284600F0E5FB002084F88F
:102F20004C000246617B284600F0AAFB217B002270
:102F3000284600F0A5FB0020FEBD70472DE9F041BA
:102F40000546D0F8780301270026C4694FF004082D
:102F500094F84C0005284AD2DFE800F00305163B40
:102F60004200002743E02122A16C2A7420226A74C7
:102F70006E82AE8207222846EA8200F062F848B9E3
:102F8000022084F84C0032E004F140012846FDF7AD
:102F9000D0FA20B101282AD084F84C8027E084F8A8
:102FA0004C60A06C94F84410027991421FD194F8BF
:102FB0004610827991421AD194F845104279914293
:102FC00015D1216C0068814211D12846FFF7B5FF69
:102FD0000DE02846FDF7BAF92846FDF783F906E02B
:102FE0000021284600F00FF808B984F84C603846F4
:102FF000BDE8F081704700207047704710B500F0C1
:1030000099FA002010BD8278012A07D102220274A9
:1030100001224274002242828182C2820022114631
:1030200000F00FB87FB51C46012501AE00230095C6
:1030300086E80E002A46214600F044FB04B000203A
:1030400070BD70B504460120A3780546012B0CD055
:10305000022B09D1204600F014F9002158B10328B1
:1030600009D0022800D1A57070BDA160A28125768B
:103070000221A17070BDA570217670BD7FB51D467F
:1030800090F81D33089C03B100240123CDE90031E1
:10309000CDE9022400231A46294600F013FB04B0B0
:1030A000002070BD1FB500231446CDE90031082271
:1030B000CDE902231A46214600F004FB04B00020AB
:1030C00010BDFDF759BC000070B50546002005F2A3
:1030D000363500BF00EB800404EBC00405EB44046C
:1030E000E67B0A348E4201D0FF2909D1A6799642A7
:1030F00001D0FF2A04D1E4799C4206D0FF2B04D0F2
:10310000401CC0B20228E5D3FF2070BD0B2907D2B6
:1031100000EB8100B0F88013C1F30E01C0F88013FA
:103120000020704730B48578029C012D0FD141F00A
:10313000800101740621417403214282B1EB122FF8
:1031400002D140F2094100E000218182C48222467E
:1031500030BC1946FFF775BF0A8803781A440A8005
:10316000017808447047F8B50E4600F11C0500913F
:1031700004462B464FF400720021FFF7D3FF0700EF
:1031800005D13246294604F2363000F0B6FA384608
:10319000F8BD38B50D460091044600F58E734FF426
:1031A00080720021FFF7BEFF002839D194F81C116E
:1031B00084F8241394F81D1184F82513B4F81E1113
:1031C000A4F8261394F8201184F8281394F82111F8
:1031D00084F8291394F8221184F82A1394F82311FF
:1031E00084F82B13082D1BD9B4F82411A4F82C1340
:1031F000B4F82611A4F82E13B4F82811A4F830134B
:1032000094F82A1184F8321394F82B1184F83313AC
:1032100094F82C1184F8341394F82D1184F8351394
:1032200038BDF8B51C461646009341F4407200F5CF
:103230008E731D460021FFF775FF002814D16978B1
:10324000032911D129788A1EA24200D814460021F0
:10325000A2B2AD1C04E06B5C891C06F8013B89B28C
:103260009142F8D300213170F8BD01004FF0000009
:1032700004D0012901D0022901D002207047012089
:1032800070472DE9F84F0125017E04460B260927DA
:1032900028464FF007084FF0050A4FF00D090C299A
:1032A00019D2DFE801F0AC060E26313C48606B7C99
:1032B000899A627904F110012046FFF7F3FE02209B
:1032C00012E06179204600F081F9012804D0042839
:1032D00071D002287FD092E0207CE18A00F080004B
:1032E00021B180283AD10320207688E0802814D0AC
:1032F0002EE0D4F8C003E0812379A2892046A1689A
:10330000FFF790FE0420EFE72179204600F05EF9F8
:10331000012802D0052840D056E027766FE00090C3
:103320006379A2892046A168FFF7A8FED4F8C003FC
:10333000E0810620D8E76179204600F047F90128AE
:1033400006D0052807D0022808D0042809D056E066
:1033500084F8188053E00C2020761EE084F818A032
:103360004DE026764AE00022237911462046FFF7F9
:1033700059FED4F8C003E0810820B5E72179204642
:1033800000F024F9012804D0042824D0052804D012
:1033900035E084F81890002531E003252FE00090F7
:1033A0000022637911462046FFF768FED4F8C00377
:1033B000E0810A2098E70EE06179204600F006F9E6
:1033C000012804D00228A8D0042804D017E0002542
:1033D00084F8189013E0267611E0617E491CC9B28A
:1033E0006176022902D82076A07008E0D4F8CC23B8
:1033F000062120469047002060762070022528464E
:10340000BDE8F88FFEB50446012640780025374612
:1034100004F58E7208286CD2DFE800F004161D4314
:103420004A53576208212046FFF7B3FE002860D1B7
:1034300094F82B03A071677094F81D130091CDE9E7
:10344000015094F81C3319E012212046FFF7A1FE29
:1034500030BB022033E00121204600F0C1FAF8B968
:103460000220FFF72EFE84F81C7303206070A07901
:1034700094F81D13CDE900153B4602902179802276
:10348000204600F030F9A07994F81D130091CDE9A1
:10349000015094F81C3361790022204600F023F992
:1034A00027E009212046FFF75EFE10BB042006E05E
:1034B000B4F838132046FFF756FED0B905206070E7
:1034C00017E094F83213062502E094F83313072529
:1034D00021B1FF232046FFF7A4FE50B9657008E034
:1034E00094F8341321B1FF232046FFF79AFE00B968
:1034F00000263046FEBD70B50E46040018D084F894
:10350000C4230025C4F87853C4F87C53FCF758FF53
:1035100084F8215384F81E5384F81F5384F82053F1
:103520000EB1C4F8CC63204600F064F8002070BDF2
:10353000022070BD10B5D0F8C803FDF720FDBDE82E
:103540001040FFF792BE012180F81E13002180F881
:103550001F1380F820130846704710B50446012059
:1035600084F81F03002084F81E0384F821032046FA
:1035700000F09FF821792046FFF7C8FD61792046C9
:10358000FFF7C4FD002010BD10B590F8C40301285A
:1035900002D10846FFF76AF9C820FDF7EDF90020CF
:1035A00010BDD0F8C803FDF7E4BC10B50124D0F875
:1035B000C803FDF7D4FC20B1012805D0022803D1AF
:1035C00001E0002400E00224204610BDD0F8C8032A
:1035D000FDF7C8BCD0F8C013491CC0F8C01301786F
:1035E0000B2905D1D0F87813002901D08969084743
:1035F0007047000010B5044690F8C403012819D1A3
:103600000D484FF0A041C0F8C042C4F8C8030160A3
:10361000082181600121C1600021C161FDF7DCFD4D
:1036200008B1FCF785FF0448FDF796FC01462046EB
:1036300000F023F8002010BDB0050020FEB508AF53
:1036400097E870008DE87000D0F8C803FDF7A9FC7A
:10365000BDE8FE40FFF709BE002180F82113704746
:10366000012180F82113704710B5D0F8C803FDF789
:1036700027FEBDE81040FFF7F8BDC0F8C013704743
:10368000D0F8C80301EB810100EBC10090F83B10BA
:1036900011B180F8502001E080F8512000207047DF
:1036A00010B5D0F8C803FDF712FEBDE81040FFF7D3
:1036B000DCBD10B5D0F8C803FDF71FFEBDE8104013
:1036C000FFF7D3BD2DE9FF410DF1280898E8F00080
:1036D0008DE8F000D0F8C803FDF79DFC04B0BDE80C
:1036E000F041FFF7C2BDFEB508AF97E870008DE866
:1036F0007000FFF7A3FF0020FEBD2DE9F84105464D
:103700000B782B704B786B704B886B800B792B711F
:103710004B796B718B79AB71CB790846EB710027D4
:10372000097A2972092A54D90921ADF800104BE011
:103730006946FFF711FD4178042943D107EB870162
:1037400001EBC70105EB4108017888F80A104178C0
:1037500088F80B10817888F80C10C17888F80D1063
:10376000017988F80E10417988F80F10817988F86E
:103770001010C17908F10A0488F81110017A217239
:10378000002615E06946FFF7E7FC417805290FD1CF
:1037900008EBC60102780A7542784A7582788A7504
:1037A000C278CA7582880A838279761C8A76F6B2D4
:1037B0002179B14204D96A88BDF800108A42E1D863
:1037C0007F1CFFB2022F04D26988BDF8002091420D
:1037D000AED8BDE8F8810000FEB5022104468DF8A0
:1037E000001094F81F230020012A01D10322227027
:1037F000227808270D2600250C2A13D2DFE802F0D4
:10380000061319B5CF4E9E5D656D7AAE94F81E0312
:10381000002807D001202070C820FFF752FC204666
:10382000FFF722FFBBE094F821030128FAD12170B1
:10383000B5E0D4F8CC2312B104212046904764208F
:10384000FFF73FFC2046FFF7B0FE84F81D0305207C
:10385000207000212046FFF74DFA6071802120463C
:10386000FFF748FA20710146A07994F81D230092D1
:10387000CDE9015094F81C3380222046FFF733FF36
:10388000A07994F81D130091CDE9015094F81C33F0
:10389000617900222046FFF726FF80E02046FFF7EF
:1038A000B1FD00287BD184F8225394F83503012818
:1038B00001D007204EE0277071E0D4F8CC23002A15
:1038C0006DD0012120469047F5E794F83B13204640
:1038D00000F094F888BB09203CE094F83D034FF0D9
:1038E0000A05800604D50121204600F095F820BB8A
:1038F000257054E0D4F87C13F9B1C4F8785394F8E7
:10390000452300BF04EB8001D1F874130B79934277
:1039100001D1C4F87813401C10F0FF00F2D0D4F8A5
:103920007803C8B1816820468847A8B9062020706E
:10393000D4F8CC2303212046904730E0D4F8780314
:1039400050B10169204688478DF800009DF80000BD
:1039500028BB0B20207022E0267020E0D4F87803EA
:10396000E8B141692046884719E084F81F53204692
:10397000FCF726FDD4F8780320B1C16820468847BB
:10398000C4F87853D4F8CC2312B1052120469047CF
:1039900094F82003012804D02046FFF781FE002080
:1039A000FEBD84F82053204600F044F8F7E70022DB
:1039B00011B1D0F87C3313B10222104670470123B5
:1039C000C0F87C33C0F87413F7E70246002092F881
:1039D0003A338B4202D982F8221370470220704793
:1039E0008278012A06D100220274052343744182A1
:1039F0008282C28200221146FFF723BB8278012A0D
:103A000006D1002202740923437441828282C28259
:103A100000221146FFF715BB8278012A06D1002249
:103A200002740323437441828282C28200221146BF
:103A3000FFF707BB10B50446FFF732FE0121204611
:103A4000FFF7A2FD002010BD01290AD00548022978
:103A500006D0042903D0052903D1032100E0012168
:103A6000017070470000002010B5044604990B98BF
:103A700001290BD0E06840F04000E060204600F0F3
:103A80001FF8A16B41F48031A16310BDA16B21F43B
:103A90008031A163E168094A1140E160E16821F4E5
:103AA0004011E160012803D1E06840F48010E0603B
:103AB0002046BDE8104000F003B80000BFFFBDFF86
:103AC00001220C4902E0521C8A420BD80369002BE8
:103AD000F9DA026942F001020261012204E0521C9B
:103AE0008A4201D9032070470369DB07F7D1002020
:103AF00070470000400D0300816821F001018160E2
:103B00000020704708B5D0F8402422F02E02009221
:103B1000D20405D4012909D1009941F4805103E070
:103B200021B9009921F48051C0F84014002008BD4B
:103B3000816841F00101816000207047002110225E
:103B40000261054A491C914201D90320704703696B
:103B5000DB06F7D400207047400D0300002220232D
:103B600043EA811101610549521C8A4201D90320AF
:103B7000704703699B06F7D400207047400D03008F
:103B8000D0F8080480B2704708B5D0F8400400901F
:103B9000C0F3414008BD406900F00100704700EBF0
:103BA0004111D1F800254FF47A73C2F381426AB112
:103BB000022A0BD0D1F8002542F08042C1F800253E
:103BC000D0F8100410F47F0F2ED009E0D1F80025B2
:103BD00042F08042C1F80025C06A10F47F0F07D080
:103BE000D1F8000540F00040C1F800050020704702
:103BF000D1F8000520F00040C1F80005D1F800051B
:103C000040F00040C1F80005D1F8000520F4004064
:103C1000C1F80005012002E0401C9842E6D8D1F826
:103C20000025002AF8DBE1E7D1F8000520F000408C
:103C3000C1F80005D1F8000540F00040C1F80005CA
:103C4000D1F8000520F40040C1F80005012002E091
:103C5000401C9842CAD8D1F80025002AF8DBC5E7F5
:103C60002DE9F0430026DDE9078500EB4114771EBE
:103C7000DDF82490C4F80875CDB1012D26D0022DB1
:103C800015D0032D1BD00126D0F8187401F00F0CAD
:103C9000012101FA0CF10F43C0F81874816941F059
:103CA0000071816110061ED54FF400401CE040F207
:103CB0009D4706E0D4F80C7547F4807710E040F299
:103CC0009D67C4F80C751706F4D4DDE740F225278C
:103CD000C4F80C751706D7D5D4F80C7547F4C0771F
:103CE000C4F80C75D0E70020B8F1020F18D00021FD
:103CF0004FF0FE5707EA83534FF4F04707EAC2221A
:103D000013434FF4402202EA85421343C9F30A02E7
:103D1000134303430B43C4F80035032D03D008E0DD
:103D20004FF40031E4E7D4F8000540F00050C4F847
:103D300000053046BDE8F083D0F8140480B2704727
:103D400030B54D780A694FF480745AB10B891A4422
:103D5000521EB2FBF3F292B2A24204D91B022246D7
:103D60000B6100E00122CB789BB30B8953430B61BD
:103D7000C3F312046FF0604303EAC24214438A7A29
:103D80004FF0C04303EA427200EB45131443C3F8FB
:103D90001045D0F80824D3F8004542F3000224F07F
:103DA0000054C3F80045D3F80045521C44EA42725F
:103DB000C3F80025D3F80045224A1460146824F0A3
:103DC00080441460CC78002C146805D044F400447E
:103DD00004E0FFE70B69CBE724F4004414601468A7
:103DE00044F0004414601268C3F80025CA783ABB56
:103DF0000A692AB3CB7933B1012B0FD0022B02D041
:103E0000032B17D10AE0D21CC36AC2F38F029BB204
:103E100093420FD2826942F020020AE0D21CD0F80D
:103E20001034C2F38F029BB2934203D2826942F0F4
:103E3000806282610A8A93B24A78C96800F0EBF81E
:103E4000002030BD040000202DE9F0410025174678
:103E50000446C0F8005E806B20F48020A063A06B55
:103E600020F40020A063D4F8000420F00400C4F87B
:103E7000000410212046FFF771FE2046FFF75EFE8A
:103E80000020461E07E000BF04EB4011C1F80865A2
:103E9000C1F80C55401C8742F6D801212046FFF797
:103EA00031FEC820FCF768FDA56166618020606274
:103EB0000748A0620748C4F80001A06940F010005C
:103EC000A061A06904490843A0610020BDE8F08119
:103ED00080006000E0004000080020A3D0F800242B
:103EE00022F00302C0F80024D0F8002401F00303FC
:103EF0001A43C0F80024012902D0022903D006E0A9
:103F00004BF6803101E041F27071C0F804140020DA
:103F100070474169806908407047D21C10B593080A
:103F2000002200F5805002E00468521C10C19A4241
:103F3000FAD3084610BD38B50446D0F8400420F046
:103F40002E00009040F48070C4F84004642004F512
:103F50008864FCF711FD009820F4807020600A202E
:103F6000FCF70AFD002038BD10B5C26822F0C0423F
:103F7000C260012902D029B1012010BDC16841F001
:103F8000005102E0C16841F08041C1603220FCF77D
:103F9000F3FC002010BD000030B504468068002509
:103FA00020F00100A06010212046FFF7D7FD204639
:103FB000FFF7C4FD5FF0000004EB4011D1F80025CD
:103FC00022F0802242F08042C1F80025401C0F28D8
:103FD000F2D900204FF47A7304EB4011D1F8002598
:103FE00022F4004242F04042C1F800256D1C9D427F
:103FF00003D8D1F80025002AF8DB401C0F28EBD9A4
:104000004FF0FF30C4F814046061A06840F0010074
:10401000A060002030BD10B5DB1C9C0800EB023016
:10402000002300F5805002E004C902605B1CA3423B
:10403000FAD3002010BDFEE70907090E002804DBB3
:1040400000F1E02080F80014704700F00F0000F14C
:10405000E02080F8141D704702E008C8121F08C154
:10406000002AFAD170477047002001E001C1121FF9
:10407000002AFBD17047000010B5002821D0114B59
:104080000022001F196803E0814203D80A464968EC
:104090000029F9D152B11368841A9C4204D10068F6
:1040A00018441060104602E0506000E0186039B11A
:1040B00002680B1A934203D10B681A4402604968E4
:1040C000416010BD380000201CB5FDF719FAFEF75D
:1040D00041FDFEF7F5FBFEF793FBFEF7B1FBFEF7A4
:1040E000D1FB25482349002401602449C0E901147B
:1040F0004FF48041C0E9034144618461C4610462BA
:10410000FDF70EF91C48009454301D4901940160DC
:10411000611EC0E90114FDF747FF01200090022055
:104120000190154869465430FDF716FFFEF790FCE4
:1041300011481449C03001604FF4E131C0E9011465
:104140000C21C460C0E904418461C461FEF744F8F5
:10415000FEF798FC0C4D4FF480544FF4FA7600BFF4
:10416000FEF7B0FC21462846FCF7DCFE3046FCF7A3
:1041700003FCF5E700540040E0000020A0860100A9
:10418000002800400044004000180140F0B50B300A
:10419000154D20F007010024144A0FE003688B42FC
:1041A0000BD38B4205D95E1A43184768C3E90067F1
:1041B00000E04368136002C004E0021D106800289C
:1041C000ECD12046002802D1286808B10020F0BDBB
:1041D000064A07481060074A121A22F00702C0E98F
:1041E000002401202860D7E73C0000203800002090
:1041F0007C080020780A0020000000000000000079
:10420000010203040607080900000000010203047C
:1042100043444300344200080000002040000000F6
:10422000584000087442000840000020380E00008A
:1042300068400008000000000000000001000000CD
:1042400010000000000000000024F40010420008EC
:1042500002000000F72D0008992D0008752D0008B8
:104260003D2F0008F72F00080000000000000000AC
:04427000000000004A
:04000005080001519D
:00000001FF
